:10000000A92BFF3FFF3F0000000008000F308312C4
:100010000313FC004730FD00FD0B0C28FC0B0C28E3
:10002000000000000800213083120313FD00FD0BC7
:1000300017280800063083120313FD00FD0B1E284D
:100040000000080083160313CE1B2928831288138F
:100050002B288312881783164E1B3128831208130E
:100060003328831208178316CE1A39288312881270
:100070003B288312881683164E1A412883120812D1
:100080004328831208166F184728081548280811B6
:100090008815032088118316CE19512883128813DE
:1000A00053288312881783164E1959288312081370
:1000B0005B28831208178316CE18612883128812D2
:1000C00063288312881683164E1869288312081233
:1000D0006B28831208166F186F28081570280811EE
:1000E0008815032088116F1C772806207828132094
:1000F000080083160313CE01D001D1011030D200C5
:10010000043051020318AE28F0308312860080308C
:10011000F0007008063E840083165209F000700853
:100120008000032003200F3083120605F0007008C2
:100130008316CF0070080319A8285008CE004F0876
:100140000319A628CF0CCF13CE0A9F280430D10064
:10015000D20D52100430D007D10A80284E08F0008A
:100160000800C328803083160313CB00D628C03084
:10017000CB00D6289430CB00D628D430CB00D6285C
:100180008030CB00D628831603134B08013A03199D
:10019000B2284B08023A0319B7284B08033A03194F
:1001A000BA284B08043A0319BD28C0284C03F000B4
:1001B0004B08F0077008CB0083126F147008831689
:1001C000CE0022206F1083164D08CE0022206F141F
:1001D000080079207008CB000F3083120605F0006C
:1001E0000319F4281A20EC2883164B08F0000800A5
:1001F000831203136F1083164B08CE0022206F1456
:100200000800831603178C1C07290000012903131B
:100210004B08831203178D00831603134C088312B7
:1002200003178C0083168C130C150B08F0008B132E
:1002300055308D00AA308D008C14F01B21298B13B2
:1002400022298B170C110800831603134B08831205
:1002500003178D0083168C130C1483120C08F00006
:100260000800343083120313FC00F130FD00FD0B55
:100270003729FC0B3729000000008316CB0124210D
:10028000700883160313B3003430FC00F130FD0016
:10029000FD0B4829FC0B4829000000000130CB0071
:1002A0002421700883160313B4003430FC00F130AD
:1002B000FD00FD0B5929FC0B5929000000000230FC
:1002C000CB002421700883160313B5003430FC00E2
:1002D000F130FD00FD0B6A29FC0B6A2900000000CB
:1002E0000330CB002421700883160313B60034308A
:1002F000FC00F130FD00FD0B7B29FC0B7B2900008D
:100300000000080083160313B7013708031D8C296A
:10031000E9207008B7008529B1293130B700E129FB
:100320003230B700E1293330B700E1293430B7006B
:10033000E1293530B700E1293630B700E1293730FF
:10034000B700E1293830B700E1293930B700E12999
:100350002A30B700E1293030B700E1292330B70057
:10036000E1293708013A03198D293708023A0319A0
:1003700090293708033A031993293708053A0319D6
:1003800096293708063A031999293708073A0319B5
:100390009C293708093A03199F2937080A3A031993
:1003A000A22937080B3A0319A52937080D3A031972
:1003B000A82937080E3A0319AB2937080F3A031951
:1003C000AE2983122008B83E8400831637088000C7
:1003D00000304806031DEE2900304706031DF929A9
:1003E0000230CB008312200A8316CC002A30CD00C5
:1003F000B120003083164806031D002A013047064D
:10040000031D102A0230CB008312200A8316CC0071
:1004100083122008B83E840000088316CD00B12066
:100420008312A00A0319A10A0800343083120313AF
:10043000FC00F130FD00FD0B1B2AFC0B1B2A000009
:1004400000008316CB013808CC0001213430FC00B9
:10045000F130FD00FD0B2A2AFC0B2A2A00000000C7
:1004600001300313CB003908CC0001213430FC00EB
:10047000F130FD00FD0B3A2AFC0B3A2A0000000087
:1004800002300313CB003A08CC0001213430FC00C9
:10049000F130FD00FD0B4A2AFC0B4A2A0000000047
:1004A00003300313CB003B08CC0001210800692A6C
:1004B000803083160313C7007C2AC030C7007C2A13
:1004C0009430C7007C2AD430C7007C2A8030C70013
:1004D0007C2A831603134708013A0319582A470850
:1004E000023A03195D2A4708033A0319602A4708AC
:1004F000043A0319632A662A4803F0004708F00704
:100500007008C7007008CE0022206F108316CA0141
:100510004A084907840000080319972A4A0849072E
:1005200084000008CB00F8208316CA0A882A8312A8
:100530006F1408008316031388110811081288121B
:10054000081388138312881108118813081388125E
:100550000812062006200620881608168815032093
:10056000881106208815032088110620881503208D
:100570008811062008128815032088110620881586
:1005800003208811881288178815032088110620F7
:10059000881308168815032088110812881503206F
:1005A0008811062088150320881108168815032055
:1005B000881106200812881503208811881708174B
:1005C0008816081688150320881106206F14080065
:1005D000831203136C088A006B08820008008030C5
:1005E00083120313F0007008063E8400FF30800081
:1005F0000800EF229A2201308316CE0022200C3010
:100600008316CE0022208B0187308316810085015E
:10061000831285018316870183128701831689015E
:1006200083128901831603178801890183128713B6
:10063000881303131F10A001A10180302106F000D0
:1006400080307002031D262B0530200203183C2B3E
:10065000013085060330FB008A30FC005530FD0078
:10066000FD0B302BFC0B302BFB0B302B0000000064
:10067000A00A0319A10A1D2B0510080001308316DA
:100680000313CE00222001308316C7000130C800BA
:10069000A830C9005722A001A10101308316C7006C
:1006A0000030C800822101308316C7000030C80026
:1006B000822101308316C7000030C800822101303A
:1006C0008316C7000030C800822115223430FC0098
:1006D000F130FD00FD0B6A2BFC0B6A2B00000000C3
:1006E00031213430FC00F130FD00FD0B752BFC0B8B
:1006F000752B000000000130CE002220013083164F
:10070000C7000130C800A830C90057220230831644
:10071000C7000130C800A030C90057223330FB00A9
:10072000BB30FC00DF30FD00FD0B942BFC0B942B49
:10073000FB0B942B000000000800E8228A110A122B
:100740008000840AEB0A0319EC0AF003031D9D2BB9
:100750000800F824F92231218312ED01EE01013065
:100760008316CE00222001308316C7000130C80056
:100770003A30C900572202308316C7000330C80040
:100780002230C9005722A001A10101308316C70001
:100790000030C8008221831638082A3A031D922CA3
:1007A0000130CE00222001308316C7000130C8007E
:1007B0002C30C9005722A001A1018316C701C8012E
:1007C00082218316C701C80182218316C701C8018F
:1007D00082218316C701C80182218316C701C8017F
:1007E000822183163808313A031D102C3908323A19
:1007F000031D102C3A08333A031D102C3B08343AE1
:10080000031D102C3C08353A031D102CC701C801EC
:10081000822183163D08233A031D0F2C3E23852C8D
:10082000831280306E06F00080307002031D1A2C97
:1008300003306D020318682C831638083306031D35
:10084000682C39083406031D682C3A083506031D48
:10085000682C3B083606031D682C3C08233A031D10
:10086000682C0130CE00222001308316C7000430EE
:10087000C8005530C9005722851405153330FB00D8
:10088000BB30FC00DF30FD00FD0B442CFC0B442C86
:10089000FB0B442C0000000001308316CE00222008
:1008A00001308316C7000430C8005F30C9005722EA
:1008B000851005111530FB004B30FC00BE30FD00EB
:1008C000FD0B602CFC0B602CFB0B602C0000852CBE
:1008D0008312ED0A0319EE0A01308316CE0022209E
:1008E00001308316C7000130C8004830C9005722C4
:1008F0001530FB004B30FC00BE30FD00FD0B7E2CA4
:10090000FC0B7E2CFB0B7E2C0000831280306E06CD
:10091000F00080307002031D8F2C03306D02031C29
:10092000922CAC2BAF2B932CFF3FFF3FFF3FFF3FA1
:10093000FF3F003400342A342734613420344234F9
:100940004134533449344E340034533449344634FA
:1009500052344534593449342034473449345234BC
:1009600049344E34003453344934463452344534D7
:100970004C34493420344B3449344C3449345434A5
:100980000034593441344E344C34493453342034D7
:100990005334493446345234453400344B344134B2
:1009A0005034493420344134433449344B340034D6
:1009B0004B3441345034493420344B344134503476
:1009C00041344C34493400344B345534523455346A
:1009D0004C34443455340034593445344E3449345D
:1009E0002034533449344634523445340034FF3FC4
:1009F000203084004B3083120313F0009930EB0059
:100A00000430EC009D23A030840013308312F000EA
:100A1000E430EB000430EC009D230800FF3FFF3F73
:04400E00FA2F00077E
:00000001FF
